{
  "_format": "hh-sol-artifact-1",
  "contractName": "TANSOBasicStakingManager_v1",
  "sourceName": "contracts/TANSOBasicStakingManager_v1.sol",
  "abi": [
    {
      "inputs": [],
      "stateMutability": "nonpayable",
      "type": "constructor"
    },
    {
      "anonymous": false,
      "inputs": [
        {
          "indexed": false,
          "internalType": "address",
          "name": "previousAdmin",
          "type": "address"
        },
        {
          "indexed": false,
          "internalType": "address",
          "name": "newAdmin",
          "type": "address"
        }
      ],
      "name": "AdminChanged",
      "type": "event"
    },
    {
      "anonymous": false,
      "inputs": [
        {
          "indexed": true,
          "internalType": "address",
          "name": "beacon",
          "type": "address"
        }
      ],
      "name": "BeaconUpgraded",
      "type": "event"
    },
    {
      "anonymous": false,
      "inputs": [
        {
          "indexed": true,
          "internalType": "address",
          "name": "previousOwner",
          "type": "address"
        },
        {
          "indexed": true,
          "internalType": "address",
          "name": "newOwner",
          "type": "address"
        }
      ],
      "name": "OwnershipTransferred",
      "type": "event"
    },
    {
      "anonymous": false,
      "inputs": [
        {
          "indexed": true,
          "internalType": "address",
          "name": "implementation",
          "type": "address"
        }
      ],
      "name": "Upgraded",
      "type": "event"
    },
    {
      "inputs": [],
      "name": "initialize",
      "outputs": [],
      "stateMutability": "nonpayable",
      "type": "function"
    },
    {
      "inputs": [],
      "name": "owner",
      "outputs": [
        {
          "internalType": "address",
          "name": "",
          "type": "address"
        }
      ],
      "stateMutability": "view",
      "type": "function"
    },
    {
      "inputs": [],
      "name": "renounceOwnership",
      "outputs": [],
      "stateMutability": "nonpayable",
      "type": "function"
    },
    {
      "inputs": [
        {
          "internalType": "contract TANSO_v1",
          "name": "token",
          "type": "address"
        },
        {
          "internalType": "address",
          "name": "recipient",
          "type": "address"
        },
        {
          "internalType": "uint256",
          "name": "amount",
          "type": "uint256"
        }
      ],
      "name": "transferBasicStaking",
      "outputs": [],
      "stateMutability": "nonpayable",
      "type": "function"
    },
    {
      "inputs": [
        {
          "internalType": "address",
          "name": "newOwner",
          "type": "address"
        }
      ],
      "name": "transferOwnership",
      "outputs": [],
      "stateMutability": "nonpayable",
      "type": "function"
    },
    {
      "inputs": [
        {
          "internalType": "address",
          "name": "newImplementation",
          "type": "address"
        }
      ],
      "name": "upgradeTo",
      "outputs": [],
      "stateMutability": "nonpayable",
      "type": "function"
    },
    {
      "inputs": [
        {
          "internalType": "address",
          "name": "newImplementation",
          "type": "address"
        },
        {
          "internalType": "bytes",
          "name": "data",
          "type": "bytes"
        }
      ],
      "name": "upgradeToAndCall",
      "outputs": [],
      "stateMutability": "payable",
      "type": "function"
    }
  ],
  "bytecode": "0x60a06040523073ffffffffffffffffffffffffffffffffffffffff1660809073ffffffffffffffffffffffffffffffffffffffff1660601b8152503480156200004757600080fd5b50600060019054906101000a900460ff16620000725760008054906101000a900460ff161562000083565b620000826200013f60201b60201c565b5b620000c5576040517f08c379a0000000000000000000000000000000000000000000000000000000008152600401620000bc9062000197565b60405180910390fd5b60008060019054906101000a900460ff16159050801562000116576001600060016101000a81548160ff02191690831515021790555060016000806101000a81548160ff0219169083151502179055505b8015620001385760008060016101000a81548160ff0219169083151502179055505b5062000219565b600062000157306200015d60201b620007fe1760201c565b15905090565b600080823b905060008111915050919050565b60006200017f602e83620001b9565b91506200018c82620001ca565b604082019050919050565b60006020820190508181036000830152620001b28162000170565b9050919050565b600082825260208201905092915050565b7f496e697469616c697a61626c653a20636f6e747261637420697320616c72656160008201527f647920696e697469616c697a6564000000000000000000000000000000000000602082015250565b60805160601c611a146200024d60003960008181610167015281816101f60152818161031601526103a50152611a146000f3fe6080604052600436106100705760003560e01c80638129fc1c1161004e5780638129fc1c146100d15780638da5cb5b146100e8578063d9765bfb14610113578063f2fde38b1461013c57610070565b80633659cfe6146100755780634f1ef2861461009e578063715018a6146100ba575b600080fd5b34801561008157600080fd5b5061009c600480360381019061009791906110d0565b610165565b005b6100b860048036038101906100b391906110f9565b610314565b005b3480156100c657600080fd5b506100cf610451565b005b3480156100dd57600080fd5b506100e66104d9565b005b3480156100f457600080fd5b506100fd6105cd565b60405161010a919061139f565b60405180910390f35b34801561011f57600080fd5b5061013a60048036038101906101359190611176565b6105f7565b005b34801561014857600080fd5b50610163600480360381019061015e91906110d0565b610706565b005b7f000000000000000000000000000000000000000000000000000000000000000073ffffffffffffffffffffffffffffffffffffffff163073ffffffffffffffffffffffffffffffffffffffff1614156101f4576040517f08c379a00000000000000000000000000000000000000000000000000000000081526004016101eb90611445565b60405180910390fd5b7f000000000000000000000000000000000000000000000000000000000000000073ffffffffffffffffffffffffffffffffffffffff16610233610811565b73ffffffffffffffffffffffffffffffffffffffff1614610289576040517f08c379a000000000000000000000000000000000000000000000000000000000815260040161028090611465565b60405180910390fd5b61029281610868565b61031181600067ffffffffffffffff8111156102d7577f4e487b7100000000000000000000000000000000000000000000000000000000600052604160045260246000fd5b6040519080825280601f01601f1916602001820160405280156103095781602001600182028036833780820191505090505b5060006108e7565b50565b7f000000000000000000000000000000000000000000000000000000000000000073ffffffffffffffffffffffffffffffffffffffff163073ffffffffffffffffffffffffffffffffffffffff1614156103a3576040517f08c379a000000000000000000000000000000000000000000000000000000000815260040161039a90611445565b60405180910390fd5b7f000000000000000000000000000000000000000000000000000000000000000073ffffffffffffffffffffffffffffffffffffffff166103e2610811565b73ffffffffffffffffffffffffffffffffffffffff1614610438576040517f08c379a000000000000000000000000000000000000000000000000000000000815260040161042f90611465565b60405180910390fd5b61044182610868565b61044d828260016108e7565b5050565b610459610ab8565b73ffffffffffffffffffffffffffffffffffffffff166104776105cd565b73ffffffffffffffffffffffffffffffffffffffff16146104cd576040517f08c379a00000000000000000000000000000000000000000000000000000000081526004016104c4906114c5565b60405180910390fd5b6104d76000610ac0565b565b600060019054906101000a900460ff166105015760008054906101000a900460ff161561050a565b610509610b86565b5b610549576040517f08c379a000000000000000000000000000000000000000000000000000000000815260040161054090611485565b60405180910390fd5b60008060019054906101000a900460ff161590508015610599576001600060016101000a81548160ff02191690831515021790555060016000806101000a81548160ff0219169083151502179055505b6105a1610b97565b6105a9610bf8565b80156105ca5760008060016101000a81548160ff0219169083151502179055505b50565b6000603360009054906101000a900473ffffffffffffffffffffffffffffffffffffffff16905090565b6105ff610ab8565b73ffffffffffffffffffffffffffffffffffffffff1661061d6105cd565b73ffffffffffffffffffffffffffffffffffffffff1614610673576040517f08c379a000000000000000000000000000000000000000000000000000000000815260040161066a906114c5565b60405180910390fd5b8273ffffffffffffffffffffffffffffffffffffffff1663a9059cbb83836040518363ffffffff1660e01b81526004016106ae9291906113ba565b602060405180830381600087803b1580156106c857600080fd5b505af11580156106dc573d6000803e3d6000fd5b505050506040513d601f19601f82011682018060405250810190610700919061114d565b50505050565b61070e610ab8565b73ffffffffffffffffffffffffffffffffffffffff1661072c6105cd565b73ffffffffffffffffffffffffffffffffffffffff1614610782576040517f08c379a0000000000000000000000000000000000000000000000000000000008152600401610779906114c5565b60405180910390fd5b600073ffffffffffffffffffffffffffffffffffffffff168173ffffffffffffffffffffffffffffffffffffffff1614156107f2576040517f08c379a00000000000000000000000000000000000000000000000000000000081526004016107e990611425565b60405180910390fd5b6107fb81610ac0565b50565b600080823b905060008111915050919050565b600061083f7f360894a13ba1a3210667c828492db98dca3e2076cc3735a920a3ca505d382bbc60001b610c59565b60000160009054906101000a900473ffffffffffffffffffffffffffffffffffffffff16905090565b610870610ab8565b73ffffffffffffffffffffffffffffffffffffffff1661088e6105cd565b73ffffffffffffffffffffffffffffffffffffffff16146108e4576040517f08c379a00000000000000000000000000000000000000000000000000000000081526004016108db906114c5565b60405180910390fd5b50565b60006108f1610811565b90506108fc84610c63565b6000835111806109095750815b1561091a576109188484610d1c565b505b60006109487f4910fdfa16fed3260ed0e7147f7cc6da11a60208b5b9406d12a635614ffd914360001b610e00565b90508060000160009054906101000a900460ff16610ab15760018160000160006101000a81548160ff021916908315150217905550610a148583604051602401610992919061139f565b6040516020818303038152906040527f3659cfe6000000000000000000000000000000000000000000000000000000007bffffffffffffffffffffffffffffffffffffffffffffffffffffffff19166020820180517bffffffffffffffffffffffffffffffffffffffffffffffffffffffff8381831617835250505050610d1c565b5060008160000160006101000a81548160ff021916908315150217905550610a3a610811565b73ffffffffffffffffffffffffffffffffffffffff168273ffffffffffffffffffffffffffffffffffffffff1614610aa7576040517f08c379a0000000000000000000000000000000000000000000000000000000008152600401610a9e90611405565b60405180910390fd5b610ab085610e0a565b5b5050505050565b600033905090565b6000603360009054906101000a900473ffffffffffffffffffffffffffffffffffffffff16905081603360006101000a81548173ffffffffffffffffffffffffffffffffffffffff021916908373ffffffffffffffffffffffffffffffffffffffff1602179055508173ffffffffffffffffffffffffffffffffffffffff168173ffffffffffffffffffffffffffffffffffffffff167f8be0079c531659141344cd1fd0a4f28419497f9722a3daafe3b4186f6b6457e060405160405180910390a35050565b6000610b91306107fe565b15905090565b600060019054906101000a900460ff16610be6576040517f08c379a0000000000000000000000000000000000000000000000000000000008152600401610bdd90611505565b60405180910390fd5b610bee610e59565b610bf6610eaa565b565b600060019054906101000a900460ff16610c47576040517f08c379a0000000000000000000000000000000000000000000000000000000008152600401610c3e90611505565b60405180910390fd5b610c4f610f0b565b610c57610f5c565b565b6000819050919050565b610c6c816107fe565b610cab576040517f08c379a0000000000000000000000000000000000000000000000000000000008152600401610ca2906114a5565b60405180910390fd5b80610cd87f360894a13ba1a3210667c828492db98dca3e2076cc3735a920a3ca505d382bbc60001b610c59565b60000160006101000a81548173ffffffffffffffffffffffffffffffffffffffff021916908373ffffffffffffffffffffffffffffffffffffffff16021790555050565b6060610d27836107fe565b610d66576040517f08c379a0000000000000000000000000000000000000000000000000000000008152600401610d5d906114e5565b60405180910390fd5b6000808473ffffffffffffffffffffffffffffffffffffffff1684604051610d8e9190611388565b600060405180830381855af49150503d8060008114610dc9576040519150601f19603f3d011682016040523d82523d6000602084013e610dce565b606091505b5091509150610df682826040518060600160405280602781526020016119b860279139610fad565b9250505092915050565b6000819050919050565b610e1381610c63565b8073ffffffffffffffffffffffffffffffffffffffff167fbc7cd75a20ee27fd9adebab32041f755214dbc6bffa90cc0225b39da2e5c2d3b60405160405180910390a250565b600060019054906101000a900460ff16610ea8576040517f08c379a0000000000000000000000000000000000000000000000000000000008152600401610e9f90611505565b60405180910390fd5b565b600060019054906101000a900460ff16610ef9576040517f08c379a0000000000000000000000000000000000000000000000000000000008152600401610ef090611505565b60405180910390fd5b610f09610f04610ab8565b610ac0565b565b600060019054906101000a900460ff16610f5a576040517f08c379a0000000000000000000000000000000000000000000000000000000008152600401610f5190611505565b60405180910390fd5b565b600060019054906101000a900460ff16610fab576040517f08c379a0000000000000000000000000000000000000000000000000000000008152600401610fa290611505565b60405180910390fd5b565b60608315610fbd5782905061100d565b600083511115610fd05782518084602001fd5b816040517f08c379a000000000000000000000000000000000000000000000000000000000815260040161100491906113e3565b60405180910390fd5b9392505050565b60006110276110228461154a565b611525565b90508281526020810184848401111561103f57600080fd5b61104a848285611607565b509392505050565b6000813590506110618161195b565b92915050565b60008151905061107681611972565b92915050565b600082601f83011261108d57600080fd5b813561109d848260208601611014565b91505092915050565b6000813590506110b581611989565b92915050565b6000813590506110ca816119a0565b92915050565b6000602082840312156110e257600080fd5b60006110f084828501611052565b91505092915050565b6000806040838503121561110c57600080fd5b600061111a85828601611052565b925050602083013567ffffffffffffffff81111561113757600080fd5b6111438582860161107c565b9150509250929050565b60006020828403121561115f57600080fd5b600061116d84828501611067565b91505092915050565b60008060006060848603121561118b57600080fd5b6000611199868287016110a6565b93505060206111aa86828701611052565b92505060406111bb868287016110bb565b9150509250925092565b6111ce816115ad565b82525050565b60006111df8261157b565b6111e98185611591565b93506111f9818560208601611616565b80840191505092915050565b600061121082611586565b61121a818561159c565b935061122a818560208601611616565b611233816116a9565b840191505092915050565b600061124b602f8361159c565b9150611256826116ba565b604082019050919050565b600061126e60268361159c565b915061127982611709565b604082019050919050565b6000611291602c8361159c565b915061129c82611758565b604082019050919050565b60006112b4602c8361159c565b91506112bf826117a7565b604082019050919050565b60006112d7602e8361159c565b91506112e2826117f6565b604082019050919050565b60006112fa602d8361159c565b915061130582611845565b604082019050919050565b600061131d60208361159c565b915061132882611894565b602082019050919050565b600061134060268361159c565b915061134b826118bd565b604082019050919050565b6000611363602b8361159c565b915061136e8261190c565b604082019050919050565b611382816115fd565b82525050565b600061139482846111d4565b915081905092915050565b60006020820190506113b460008301846111c5565b92915050565b60006040820190506113cf60008301856111c5565b6113dc6020830184611379565b9392505050565b600060208201905081810360008301526113fd8184611205565b905092915050565b6000602082019050818103600083015261141e8161123e565b9050919050565b6000602082019050818103600083015261143e81611261565b9050919050565b6000602082019050818103600083015261145e81611284565b9050919050565b6000602082019050818103600083015261147e816112a7565b9050919050565b6000602082019050818103600083015261149e816112ca565b9050919050565b600060208201905081810360008301526114be816112ed565b9050919050565b600060208201905081810360008301526114de81611310565b9050919050565b600060208201905081810360008301526114fe81611333565b9050919050565b6000602082019050818103600083015261151e81611356565b9050919050565b600061152f611540565b905061153b8282611649565b919050565b6000604051905090565b600067ffffffffffffffff8211156115655761156461167a565b5b61156e826116a9565b9050602081019050919050565b600081519050919050565b600081519050919050565b600081905092915050565b600082825260208201905092915050565b60006115b8826115dd565b9050919050565b60008115159050919050565b60006115d6826115ad565b9050919050565b600073ffffffffffffffffffffffffffffffffffffffff82169050919050565b6000819050919050565b82818337600083830152505050565b60005b83811015611634578082015181840152602081019050611619565b83811115611643576000848401525b50505050565b611652826116a9565b810181811067ffffffffffffffff821117156116715761167061167a565b5b80604052505050565b7f4e487b7100000000000000000000000000000000000000000000000000000000600052604160045260246000fd5b6000601f19601f8301169050919050565b7f45524331393637557067726164653a207570677261646520627265616b73206660008201527f7572746865722075706772616465730000000000000000000000000000000000602082015250565b7f4f776e61626c653a206e6577206f776e657220697320746865207a65726f206160008201527f6464726573730000000000000000000000000000000000000000000000000000602082015250565b7f46756e6374696f6e206d7573742062652063616c6c6564207468726f7567682060008201527f64656c656761746563616c6c0000000000000000000000000000000000000000602082015250565b7f46756e6374696f6e206d7573742062652063616c6c6564207468726f7567682060008201527f6163746976652070726f78790000000000000000000000000000000000000000602082015250565b7f496e697469616c697a61626c653a20636f6e747261637420697320616c72656160008201527f647920696e697469616c697a6564000000000000000000000000000000000000602082015250565b7f455243313936373a206e657720696d706c656d656e746174696f6e206973206e60008201527f6f74206120636f6e747261637400000000000000000000000000000000000000602082015250565b7f4f776e61626c653a2063616c6c6572206973206e6f7420746865206f776e6572600082015250565b7f416464726573733a2064656c65676174652063616c6c20746f206e6f6e2d636f60008201527f6e74726163740000000000000000000000000000000000000000000000000000602082015250565b7f496e697469616c697a61626c653a20636f6e7472616374206973206e6f74206960008201527f6e697469616c697a696e67000000000000000000000000000000000000000000602082015250565b611964816115ad565b811461196f57600080fd5b50565b61197b816115bf565b811461198657600080fd5b50565b611992816115cb565b811461199d57600080fd5b50565b6119a9816115fd565b81146119b457600080fd5b5056fe416464726573733a206c6f772d6c6576656c2064656c65676174652063616c6c206661696c6564a2646970667358221220f33dcac83fed8bb085380ad83670a28311087e40f94513973355ed522bf8ca1f64736f6c63430008040033",
  "linkReferences": {},
  "deployedLinkReferences": {}
}