{
  "_format": "hh-sol-artifact-1",
  "contractName": "TANSO_v1",
  "sourceName": "contracts/TANSO_v1.sol",
  "abi": [
    {
      "inputs": [],
      "stateMutability": "nonpayable",
      "type": "constructor"
    },
    {
      "anonymous": false,
      "inputs": [
        {
          "indexed": false,
          "internalType": "address",
          "name": "previousAdmin",
          "type": "address"
        },
        {
          "indexed": false,
          "internalType": "address",
          "name": "newAdmin",
          "type": "address"
        }
      ],
      "name": "AdminChanged",
      "type": "event"
    },
    {
      "anonymous": false,
      "inputs": [
        {
          "indexed": true,
          "internalType": "address",
          "name": "owner",
          "type": "address"
        },
        {
          "indexed": true,
          "internalType": "address",
          "name": "spender",
          "type": "address"
        },
        {
          "indexed": false,
          "internalType": "uint256",
          "name": "value",
          "type": "uint256"
        }
      ],
      "name": "Approval",
      "type": "event"
    },
    {
      "anonymous": false,
      "inputs": [
        {
          "indexed": true,
          "internalType": "address",
          "name": "beacon",
          "type": "address"
        }
      ],
      "name": "BeaconUpgraded",
      "type": "event"
    },
    {
      "anonymous": false,
      "inputs": [
        {
          "indexed": true,
          "internalType": "address",
          "name": "buyer",
          "type": "address"
        },
        {
          "indexed": true,
          "internalType": "address",
          "name": "seller",
          "type": "address"
        },
        {
          "indexed": false,
          "internalType": "uint256",
          "name": "price",
          "type": "uint256"
        },
        {
          "indexed": true,
          "internalType": "address",
          "name": "feeRecipient",
          "type": "address"
        }
      ],
      "name": "ItemPurchase",
      "type": "event"
    },
    {
      "anonymous": false,
      "inputs": [
        {
          "indexed": true,
          "internalType": "address",
          "name": "previousOwner",
          "type": "address"
        },
        {
          "indexed": true,
          "internalType": "address",
          "name": "newOwner",
          "type": "address"
        }
      ],
      "name": "OwnershipTransferred",
      "type": "event"
    },
    {
      "anonymous": false,
      "inputs": [
        {
          "indexed": true,
          "internalType": "address",
          "name": "from",
          "type": "address"
        },
        {
          "indexed": true,
          "internalType": "address",
          "name": "to",
          "type": "address"
        },
        {
          "indexed": false,
          "internalType": "uint256",
          "name": "value",
          "type": "uint256"
        }
      ],
      "name": "Transfer",
      "type": "event"
    },
    {
      "anonymous": false,
      "inputs": [
        {
          "indexed": true,
          "internalType": "address",
          "name": "implementation",
          "type": "address"
        }
      ],
      "name": "Upgraded",
      "type": "event"
    },
    {
      "inputs": [
        {
          "internalType": "address",
          "name": "owner",
          "type": "address"
        },
        {
          "internalType": "address",
          "name": "spender",
          "type": "address"
        }
      ],
      "name": "allowance",
      "outputs": [
        {
          "internalType": "uint256",
          "name": "",
          "type": "uint256"
        }
      ],
      "stateMutability": "view",
      "type": "function"
    },
    {
      "inputs": [
        {
          "internalType": "address",
          "name": "spender",
          "type": "address"
        },
        {
          "internalType": "uint256",
          "name": "amount",
          "type": "uint256"
        }
      ],
      "name": "approve",
      "outputs": [
        {
          "internalType": "bool",
          "name": "",
          "type": "bool"
        }
      ],
      "stateMutability": "nonpayable",
      "type": "function"
    },
    {
      "inputs": [
        {
          "internalType": "address",
          "name": "account",
          "type": "address"
        }
      ],
      "name": "balanceOf",
      "outputs": [
        {
          "internalType": "uint256",
          "name": "",
          "type": "uint256"
        }
      ],
      "stateMutability": "view",
      "type": "function"
    },
    {
      "inputs": [],
      "name": "basicStakingManagerAddress",
      "outputs": [
        {
          "internalType": "address",
          "name": "",
          "type": "address"
        }
      ],
      "stateMutability": "view",
      "type": "function"
    },
    {
      "inputs": [],
      "name": "cap",
      "outputs": [
        {
          "internalType": "uint256",
          "name": "",
          "type": "uint256"
        }
      ],
      "stateMutability": "view",
      "type": "function"
    },
    {
      "inputs": [],
      "name": "decimals",
      "outputs": [
        {
          "internalType": "uint8",
          "name": "",
          "type": "uint8"
        }
      ],
      "stateMutability": "view",
      "type": "function"
    },
    {
      "inputs": [
        {
          "internalType": "address",
          "name": "spender",
          "type": "address"
        },
        {
          "internalType": "uint256",
          "name": "subtractedValue",
          "type": "uint256"
        }
      ],
      "name": "decreaseAllowance",
      "outputs": [
        {
          "internalType": "bool",
          "name": "",
          "type": "bool"
        }
      ],
      "stateMutability": "nonpayable",
      "type": "function"
    },
    {
      "inputs": [],
      "name": "feePerPricePercentage",
      "outputs": [
        {
          "internalType": "uint256",
          "name": "",
          "type": "uint256"
        }
      ],
      "stateMutability": "view",
      "type": "function"
    },
    {
      "inputs": [],
      "name": "feeStakingManagerAddress",
      "outputs": [
        {
          "internalType": "address",
          "name": "",
          "type": "address"
        }
      ],
      "stateMutability": "view",
      "type": "function"
    },
    {
      "inputs": [],
      "name": "feeStakingPerFeePercentage",
      "outputs": [
        {
          "internalType": "uint256",
          "name": "",
          "type": "uint256"
        }
      ],
      "stateMutability": "view",
      "type": "function"
    },
    {
      "inputs": [
        {
          "internalType": "address",
          "name": "spender",
          "type": "address"
        },
        {
          "internalType": "uint256",
          "name": "addedValue",
          "type": "uint256"
        }
      ],
      "name": "increaseAllowance",
      "outputs": [
        {
          "internalType": "bool",
          "name": "",
          "type": "bool"
        }
      ],
      "stateMutability": "nonpayable",
      "type": "function"
    },
    {
      "inputs": [
        {
          "internalType": "address",
          "name": "basicStakingManagerAddress_",
          "type": "address"
        },
        {
          "internalType": "address",
          "name": "feeStakingManagerAddress_",
          "type": "address"
        }
      ],
      "name": "initialize",
      "outputs": [],
      "stateMutability": "nonpayable",
      "type": "function"
    },
    {
      "inputs": [],
      "name": "isTransferMutexLocked",
      "outputs": [
        {
          "internalType": "bool",
          "name": "",
          "type": "bool"
        }
      ],
      "stateMutability": "view",
      "type": "function"
    },
    {
      "inputs": [],
      "name": "name",
      "outputs": [
        {
          "internalType": "string",
          "name": "",
          "type": "string"
        }
      ],
      "stateMutability": "view",
      "type": "function"
    },
    {
      "inputs": [],
      "name": "owner",
      "outputs": [
        {
          "internalType": "address",
          "name": "",
          "type": "address"
        }
      ],
      "stateMutability": "view",
      "type": "function"
    },
    {
      "inputs": [
        {
          "internalType": "address",
          "name": "seller",
          "type": "address"
        },
        {
          "internalType": "uint256",
          "name": "price",
          "type": "uint256"
        },
        {
          "internalType": "address",
          "name": "feeRecipient",
          "type": "address"
        }
      ],
      "name": "purchaseItem",
      "outputs": [],
      "stateMutability": "nonpayable",
      "type": "function"
    },
    {
      "inputs": [],
      "name": "renounceOwnership",
      "outputs": [],
      "stateMutability": "nonpayable",
      "type": "function"
    },
    {
      "inputs": [
        {
          "internalType": "address",
          "name": "basicStakingManagerAddress_",
          "type": "address"
        }
      ],
      "name": "setBasicStakingManagerAddress",
      "outputs": [],
      "stateMutability": "nonpayable",
      "type": "function"
    },
    {
      "inputs": [
        {
          "internalType": "uint256",
          "name": "feePerPricePercentage_",
          "type": "uint256"
        }
      ],
      "name": "setFeePerPricePercentage",
      "outputs": [],
      "stateMutability": "nonpayable",
      "type": "function"
    },
    {
      "inputs": [
        {
          "internalType": "address",
          "name": "feeStakingManagerAddress_",
          "type": "address"
        }
      ],
      "name": "setFeeStakingManagerAddress",
      "outputs": [],
      "stateMutability": "nonpayable",
      "type": "function"
    },
    {
      "inputs": [
        {
          "internalType": "uint256",
          "name": "feeStakingPerFeePercentage_",
          "type": "uint256"
        }
      ],
      "name": "setFeeStakingPerFeePercentage",
      "outputs": [],
      "stateMutability": "nonpayable",
      "type": "function"
    },
    {
      "inputs": [
        {
          "internalType": "bool",
          "name": "isTransferMutexLocked_",
          "type": "bool"
        }
      ],
      "name": "setIsTransferMutexLocked",
      "outputs": [],
      "stateMutability": "nonpayable",
      "type": "function"
    },
    {
      "inputs": [],
      "name": "symbol",
      "outputs": [
        {
          "internalType": "string",
          "name": "",
          "type": "string"
        }
      ],
      "stateMutability": "view",
      "type": "function"
    },
    {
      "inputs": [],
      "name": "tokenHolderAddresses",
      "outputs": [
        {
          "internalType": "address[]",
          "name": "",
          "type": "address[]"
        }
      ],
      "stateMutability": "view",
      "type": "function"
    },
    {
      "inputs": [],
      "name": "totalSupply",
      "outputs": [
        {
          "internalType": "uint256",
          "name": "",
          "type": "uint256"
        }
      ],
      "stateMutability": "view",
      "type": "function"
    },
    {
      "inputs": [
        {
          "internalType": "address",
          "name": "recipient",
          "type": "address"
        },
        {
          "internalType": "uint256",
          "name": "amount",
          "type": "uint256"
        }
      ],
      "name": "transfer",
      "outputs": [
        {
          "internalType": "bool",
          "name": "",
          "type": "bool"
        }
      ],
      "stateMutability": "nonpayable",
      "type": "function"
    },
    {
      "inputs": [
        {
          "internalType": "address",
          "name": "sender",
          "type": "address"
        },
        {
          "internalType": "address",
          "name": "recipient",
          "type": "address"
        },
        {
          "internalType": "uint256",
          "name": "amount",
          "type": "uint256"
        }
      ],
      "name": "transferFrom",
      "outputs": [
        {
          "internalType": "bool",
          "name": "",
          "type": "bool"
        }
      ],
      "stateMutability": "nonpayable",
      "type": "function"
    },
    {
      "inputs": [
        {
          "internalType": "address",
          "name": "newOwner",
          "type": "address"
        }
      ],
      "name": "transferOwnership",
      "outputs": [],
      "stateMutability": "nonpayable",
      "type": "function"
    },
    {
      "inputs": [
        {
          "internalType": "address",
          "name": "newImplementation",
          "type": "address"
        }
      ],
      "name": "upgradeTo",
      "outputs": [],
      "stateMutability": "nonpayable",
      "type": "function"
    },
    {
      "inputs": [
        {
          "internalType": "address",
          "name": "newImplementation",
          "type": "address"
        },
        {
          "internalType": "bytes",
          "name": "data",
          "type": "bytes"
        }
      ],
      "name": "upgradeToAndCall",
      "outputs": [],
      "stateMutability": "payable",
      "type": "function"
    }
  ],
  "bytecode": "0x60a06040523073ffffffffffffffffffffffffffffffffffffffff1660809073ffffffffffffffffffffffffffffffffffffffff1660601b8152503480156200004757600080fd5b50600060019054906101000a900460ff16620000725760008054906101000a900460ff161562000083565b620000826200013f60201b60201c565b5b620000c5576040517f08c379a0000000000000000000000000000000000000000000000000000000008152600401620000bc9062000197565b60405180910390fd5b60008060019054906101000a900460ff16159050801562000116576001600060016101000a81548160ff02191690831515021790555060016000806101000a81548160ff0219169083151502179055505b8015620001385760008060016101000a81548160ff0219169083151502179055505b5062000219565b600062000157306200015d60201b620022911760201c565b15905090565b600080823b905060008111915050919050565b60006200017f602e83620001b9565b91506200018c82620001ca565b604082019050919050565b60006020820190508181036000830152620001b28162000170565b9050919050565b600082825260208201905092915050565b7f496e697469616c697a61626c653a20636f6e747261637420697320616c72656160008201527f647920696e697469616c697a6564000000000000000000000000000000000000602082015250565b60805160601c6157c96200024d60003960008181610b0e01528181610b9d015281816113b9015261144801526157c96000f3fe6080604052600436106101cd5760003560e01c80634f1ef286116100f757806395d89b4111610095578063dd62ed3e11610064578063dd62ed3e1461066b578063de75a6af146106a8578063dea4588b146106d1578063f2fde38b146106fc576101cd565b806395d89b411461059d578063a457c2d7146105c8578063a825db0414610605578063a9059cbb1461062e576101cd565b806363809639116100d157806363809639146104f557806370a082311461051e578063715018a61461055b5780638da5cb5b14610572576101cd565b80634f1ef2861461048557806354ceaf53146104a15780636254ce20146104cc576101cd565b80632471d6031161016f578063355274ea1161013e578063355274ea146103cb5780633659cfe6146103f6578063395093511461041f578063485cc9551461045c576101cd565b80632471d603146103215780632b178ce41461034c578063313ce5671461037557806333a04133146103a0576101cd565b8063095ea7b3116101ab578063095ea7b31461025157806315a170861461028e57806318160ddd146102b957806323b872dd146102e4576101cd565b80630552fa60146101d257806306392356146101fb57806306fdde0314610226575b600080fd5b3480156101de57600080fd5b506101f960048036038101906101f49190613c5b565b610725565b005b34801561020757600080fd5b506102106107f0565b60405161021d91906142cc565b60405180910390f35b34801561023257600080fd5b5061023b610808565b60405161024891906142e7565b60405180910390f35b34801561025d57600080fd5b5061027860048036038101906102739190613ba7565b61089a565b60405161028591906142cc565b60405180910390f35b34801561029a57600080fd5b506102a36108b8565b6040516102b091906142aa565b60405180910390f35b3480156102c557600080fd5b506102ce610947565b6040516102db9190614769565b60405180910390f35b3480156102f057600080fd5b5061030b60048036038101906103069190613b04565b610951565b60405161031891906142cc565b60405180910390f35b34801561032d57600080fd5b50610336610a49565b6040516103439190614769565b60405180910390f35b34801561035857600080fd5b50610373600480360381019061036e9190613c32565b610a54565b005b34801561038157600080fd5b5061038a610aee565b6040516103979190614784565b60405180910390f35b3480156103ac57600080fd5b506103b5610af7565b6040516103c29190614769565b60405180910390f35b3480156103d757600080fd5b506103e0610b02565b6040516103ed9190614769565b60405180910390f35b34801561040257600080fd5b5061041d60048036038101906104189190613a9f565b610b0c565b005b34801561042b57600080fd5b5061044660048036038101906104419190613ba7565b610cbb565b60405161045391906142cc565b60405180910390f35b34801561046857600080fd5b50610483600480360381019061047e9190613ac8565b610d67565b005b61049f600480360381019061049a9190613b53565b6113b7565b005b3480156104ad57600080fd5b506104b66114f4565b6040516104c3919061428f565b60405180910390f35b3480156104d857600080fd5b506104f360048036038101906104ee9190613be3565b61151f565b005b34801561050157600080fd5b5061051c60048036038101906105179190613a9f565b611b24565b005b34801561052a57600080fd5b5061054560048036038101906105409190613a9f565b611c55565b6040516105529190614769565b60405180910390f35b34801561056757600080fd5b50610570611c9e565b005b34801561057e57600080fd5b50610587611d26565b604051610594919061428f565b60405180910390f35b3480156105a957600080fd5b506105b2611d50565b6040516105bf91906142e7565b60405180910390f35b3480156105d457600080fd5b506105ef60048036038101906105ea9190613ba7565b611de2565b6040516105fc91906142cc565b60405180910390f35b34801561061157600080fd5b5061062c60048036038101906106279190613a9f565b611ecd565b005b34801561063a57600080fd5b5061065560048036038101906106509190613ba7565b611ffe565b60405161066291906142cc565b60405180910390f35b34801561067757600080fd5b50610692600480360381019061068d9190613ac8565b61201c565b60405161069f9190614769565b60405180910390f35b3480156106b457600080fd5b506106cf60048036038101906106ca9190613c5b565b6120a3565b005b3480156106dd57600080fd5b506106e661216e565b6040516106f3919061428f565b60405180910390f35b34801561070857600080fd5b50610723600480360381019061071e9190613a9f565b612199565b005b61072d6122a4565b73ffffffffffffffffffffffffffffffffffffffff1661074b611d26565b73ffffffffffffffffffffffffffffffffffffffff16146107a1576040517f08c379a000000000000000000000000000000000000000000000000000000000815260040161079890614569565b60405180910390fd5b60648111156107e5576040517f08c379a00000000000000000000000000000000000000000000000000000000081526004016107dc906144c9565b60405180910390fd5b806101338190555050565b600061013460009054906101000a900460ff16905090565b60606036805461081790614b4c565b80601f016020809104026020016040519081016040528092919081815260200182805461084390614b4c565b80156108905780601f1061086557610100808354040283529160200191610890565b820191906000526020600020905b81548152906001019060200180831161087357829003601f168201915b5050505050905090565b60006108ae6108a76122a4565b84846122ac565b6001905092915050565b606061012e80548060200260200160405190810160405280929190818152602001828054801561093d57602002820191906000526020600020905b8160009054906101000a900473ffffffffffffffffffffffffffffffffffffffff1673ffffffffffffffffffffffffffffffffffffffff16815260200190600101908083116108f3575b5050505050905090565b6000603554905090565b600061095e848484612477565b6000603460008673ffffffffffffffffffffffffffffffffffffffff1673ffffffffffffffffffffffffffffffffffffffff16815260200190815260200160002060006109a96122a4565b73ffffffffffffffffffffffffffffffffffffffff1673ffffffffffffffffffffffffffffffffffffffff16815260200190815260200160002054905082811015610a29576040517f08c379a0000000000000000000000000000000000000000000000000000000008152600401610a2090614549565b60405180910390fd5b610a3d85610a356122a4565b8584036122ac565b60019150509392505050565b600061013254905090565b610a5c6122a4565b73ffffffffffffffffffffffffffffffffffffffff16610a7a611d26565b73ffffffffffffffffffffffffffffffffffffffff1614610ad0576040517f08c379a0000000000000000000000000000000000000000000000000000000008152600401610ac790614569565b60405180910390fd5b8061013460006101000a81548160ff02191690831515021790555050565b60006012905090565b600061013354905090565b6000606554905090565b7f000000000000000000000000000000000000000000000000000000000000000073ffffffffffffffffffffffffffffffffffffffff163073ffffffffffffffffffffffffffffffffffffffff161415610b9b576040517f08c379a0000000000000000000000000000000000000000000000000000000008152600401610b9290614409565b60405180910390fd5b7f000000000000000000000000000000000000000000000000000000000000000073ffffffffffffffffffffffffffffffffffffffff16610bda6126fb565b73ffffffffffffffffffffffffffffffffffffffff1614610c30576040517f08c379a0000000000000000000000000000000000000000000000000000000008152600401610c2790614469565b60405180910390fd5b610c3981612752565b610cb881600067ffffffffffffffff811115610c7e577f4e487b7100000000000000000000000000000000000000000000000000000000600052604160045260246000fd5b6040519080825280601f01601f191660200182016040528015610cb05781602001600182028036833780820191505090505b5060006127d1565b50565b6000610d5d610cc86122a4565b848460346000610cd66122a4565b73ffffffffffffffffffffffffffffffffffffffff1673ffffffffffffffffffffffffffffffffffffffff16815260200190815260200160002060008873ffffffffffffffffffffffffffffffffffffffff1673ffffffffffffffffffffffffffffffffffffffff16815260200190815260200160002054610d589190614860565b6122ac565b6001905092915050565b600060019054906101000a900460ff16610d8f5760008054906101000a900460ff1615610d98565b610d976129a2565b5b610dd7576040517f08c379a0000000000000000000000000000000000000000000000000000000008152600401610dce906144e9565b60405180910390fd5b60008060019054906101000a900460ff161590508015610e27576001600060016101000a81548160ff02191690831515021790555060016000806101000a81548160ff0219169083151502179055505b610e9b6040518060400160405280600581526020017f54414e534f0000000000000000000000000000000000000000000000000000008152506040518060400160405280600381526020017f544e5300000000000000000000000000000000000000000000000000000000008152506129b3565b610ec6610ea6610aee565b600a610eb29190614909565b633b9aca00610ec19190614a27565b612a18565b610ece612a7b565b610ed6612adc565b610edf30612b3d565b3073ffffffffffffffffffffffffffffffffffffffff1661012e600081548110610f32577f4e487b7100000000000000000000000000000000000000000000000000000000600052603260045260246000fd5b9060005260206000200160009054906101000a900473ffffffffffffffffffffffffffffffffffffffff1673ffffffffffffffffffffffffffffffffffffffff1614610f7d57600080fd5b600061012f60003073ffffffffffffffffffffffffffffffffffffffff1673ffffffffffffffffffffffffffffffffffffffff1681526020019081526020016000206001015414610fcd57600080fd5b610fd683612b3d565b8273ffffffffffffffffffffffffffffffffffffffff1661012e600181548110611029577f4e487b7100000000000000000000000000000000000000000000000000000000600052603260045260246000fd5b9060005260206000200160009054906101000a900473ffffffffffffffffffffffffffffffffffffffff1673ffffffffffffffffffffffffffffffffffffffff161461107457600080fd5b600161012f60008573ffffffffffffffffffffffffffffffffffffffff1673ffffffffffffffffffffffffffffffffffffffff16815260200190815260200160002060010154146110c457600080fd5b8261013060006101000a81548173ffffffffffffffffffffffffffffffffffffffff021916908373ffffffffffffffffffffffffffffffffffffffff16021790555061110f82612b3d565b8173ffffffffffffffffffffffffffffffffffffffff1661012e600281548110611162577f4e487b7100000000000000000000000000000000000000000000000000000000600052603260045260246000fd5b9060005260206000200160009054906101000a900473ffffffffffffffffffffffffffffffffffffffff1673ffffffffffffffffffffffffffffffffffffffff16146111ad57600080fd5b600261012f60008473ffffffffffffffffffffffffffffffffffffffff1673ffffffffffffffffffffffffffffffffffffffff16815260200190815260200160002060010154146111fd57600080fd5b8161013160006101000a81548173ffffffffffffffffffffffffffffffffffffffff021916908373ffffffffffffffffffffffffffffffffffffffff16021790555061124f61124a611d26565b612b3d565b611257611d26565b73ffffffffffffffffffffffffffffffffffffffff1661012e6003815481106112a9577f4e487b7100000000000000000000000000000000000000000000000000000000600052603260045260246000fd5b9060005260206000200160009054906101000a900473ffffffffffffffffffffffffffffffffffffffff1673ffffffffffffffffffffffffffffffffffffffff16146112f457600080fd5b600361012f6000611303611d26565b73ffffffffffffffffffffffffffffffffffffffff1673ffffffffffffffffffffffffffffffffffffffff168152602001908152602001600020600101541461134b57600080fd5b611363611356611d26565b61135e610b02565b612cac565b600261013281905550603261013381905550600061013460006101000a81548160ff02191690831515021790555080156113b25760008060016101000a81548160ff0219169083151502179055505b505050565b7f000000000000000000000000000000000000000000000000000000000000000073ffffffffffffffffffffffffffffffffffffffff163073ffffffffffffffffffffffffffffffffffffffff161415611446576040517f08c379a000000000000000000000000000000000000000000000000000000000815260040161143d90614409565b60405180910390fd5b7f000000000000000000000000000000000000000000000000000000000000000073ffffffffffffffffffffffffffffffffffffffff166114856126fb565b73ffffffffffffffffffffffffffffffffffffffff16146114db576040517f08c379a00000000000000000000000000000000000000000000000000000000081526004016114d290614469565b60405180910390fd5b6114e482612752565b6114f0828260016127d1565b5050565b600061013060009054906101000a900473ffffffffffffffffffffffffffffffffffffffff16905090565b6000151561013460009054906101000a900460ff16151514611576576040517f08c379a000000000000000000000000000000000000000000000000000000000815260040161156d906146a9565b60405180910390fd5b600073ffffffffffffffffffffffffffffffffffffffff168373ffffffffffffffffffffffffffffffffffffffff1614156115e6576040517f08c379a00000000000000000000000000000000000000000000000000000000081526004016115dd90614689565b60405180910390fd5b6115ee6122a4565b73ffffffffffffffffffffffffffffffffffffffff168373ffffffffffffffffffffffffffffffffffffffff16141561165c576040517f08c379a000000000000000000000000000000000000000000000000000000000815260040161165390614629565b60405180910390fd5b61166c6116676122a4565b611c55565b8211156116ae576040517f08c379a00000000000000000000000000000000000000000000000000000000081526004016116a5906144a9565b60405180910390fd5b600073ffffffffffffffffffffffffffffffffffffffff168173ffffffffffffffffffffffffffffffffffffffff16141561171e576040517f08c379a000000000000000000000000000000000000000000000000000000000815260040161171590614489565b60405180910390fd5b6117266122a4565b73ffffffffffffffffffffffffffffffffffffffff168173ffffffffffffffffffffffffffffffffffffffff161415611794576040517f08c379a000000000000000000000000000000000000000000000000000000000815260040161178b90614429565b60405180910390fd5b60646101325411156117db576040517f08c379a00000000000000000000000000000000000000000000000000000000081526004016117d2906143e9565b60405180910390fd5b6064610133541115611822576040517f08c379a000000000000000000000000000000000000000000000000000000000815260040161181990614509565b60405180910390fd5b600080600061184061013254606487612d169092919063ffffffff16565b809350819450505082611888576040517f08c379a000000000000000000000000000000000000000000000000000000000815260040161187f90614589565b60405180910390fd5b848211156118cb576040517f08c379a00000000000000000000000000000000000000000000000000000000081526004016118c290614349565b60405180910390fd5b6118e461013354606484612d169092919063ffffffff16565b80925081945050508261192c576040517f08c379a000000000000000000000000000000000000000000000000000000000815260040161192390614669565b60405180910390fd5b8181111561196f576040517f08c379a0000000000000000000000000000000000000000000000000000000008152600401611966906143c9565b60405180910390fd5b8373ffffffffffffffffffffffffffffffffffffffff168673ffffffffffffffffffffffffffffffffffffffff1614611a355781856119ae9190614a81565b600010156119cd576119cb8683876119c69190614a81565b611ffe565b505b80826119d99190614a81565b600010156119f8576119f68482846119f19190614a81565b611ffe565b505b8060001015611a3057611a2e61013160009054906101000a900473ffffffffffffffffffffffffffffffffffffffff1682611ffe565b505b611a99565b8085611a419190614a81565b60001015611a6057611a5e868287611a599190614a81565b611ffe565b505b8060001015611a9857611a9661013160009054906101000a900473ffffffffffffffffffffffffffffffffffffffff1682611ffe565b505b5b8373ffffffffffffffffffffffffffffffffffffffff168673ffffffffffffffffffffffffffffffffffffffff16611acf6122a4565b73ffffffffffffffffffffffffffffffffffffffff167f1680cfddf4fad1d1c9e52b4990162fe07d6ddc83487aa916ad5bb1e76687dba988604051611b149190614769565b60405180910390a4505050505050565b611b2c6122a4565b73ffffffffffffffffffffffffffffffffffffffff16611b4a611d26565b73ffffffffffffffffffffffffffffffffffffffff1614611ba0576040517f08c379a0000000000000000000000000000000000000000000000000000000008152600401611b9790614569565b60405180910390fd5b600073ffffffffffffffffffffffffffffffffffffffff168173ffffffffffffffffffffffffffffffffffffffff161415611c10576040517f08c379a0000000000000000000000000000000000000000000000000000000008152600401611c07906145a9565b60405180910390fd5b8061013160006101000a81548173ffffffffffffffffffffffffffffffffffffffff021916908373ffffffffffffffffffffffffffffffffffffffff16021790555050565b6000603360008373ffffffffffffffffffffffffffffffffffffffff1673ffffffffffffffffffffffffffffffffffffffff168152602001908152602001600020549050919050565b611ca66122a4565b73ffffffffffffffffffffffffffffffffffffffff16611cc4611d26565b73ffffffffffffffffffffffffffffffffffffffff1614611d1a576040517f08c379a0000000000000000000000000000000000000000000000000000000008152600401611d1190614569565b60405180910390fd5b611d246000612ddb565b565b6000609860009054906101000a900473ffffffffffffffffffffffffffffffffffffffff16905090565b606060378054611d5f90614b4c565b80601f0160208091040260200160405190810160405280929190818152602001828054611d8b90614b4c565b8015611dd85780601f10611dad57610100808354040283529160200191611dd8565b820191906000526020600020905b815481529060010190602001808311611dbb57829003601f168201915b5050505050905090565b60008060346000611df16122a4565b73ffffffffffffffffffffffffffffffffffffffff1673ffffffffffffffffffffffffffffffffffffffff16815260200190815260200160002060008573ffffffffffffffffffffffffffffffffffffffff1673ffffffffffffffffffffffffffffffffffffffff16815260200190815260200160002054905082811015611eae576040517f08c379a0000000000000000000000000000000000000000000000000000000008152600401611ea590614729565b60405180910390fd5b611ec2611eb96122a4565b858584036122ac565b600191505092915050565b611ed56122a4565b73ffffffffffffffffffffffffffffffffffffffff16611ef3611d26565b73ffffffffffffffffffffffffffffffffffffffff1614611f49576040517f08c379a0000000000000000000000000000000000000000000000000000000008152600401611f4090614569565b60405180910390fd5b600073ffffffffffffffffffffffffffffffffffffffff168173ffffffffffffffffffffffffffffffffffffffff161415611fb9576040517f08c379a0000000000000000000000000000000000000000000000000000000008152600401611fb0906145a9565b60405180910390fd5b8061013060006101000a81548173ffffffffffffffffffffffffffffffffffffffff021916908373ffffffffffffffffffffffffffffffffffffffff16021790555050565b600061201261200b6122a4565b8484612477565b6001905092915050565b6000603460008473ffffffffffffffffffffffffffffffffffffffff1673ffffffffffffffffffffffffffffffffffffffff16815260200190815260200160002060008373ffffffffffffffffffffffffffffffffffffffff1673ffffffffffffffffffffffffffffffffffffffff16815260200190815260200160002054905092915050565b6120ab6122a4565b73ffffffffffffffffffffffffffffffffffffffff166120c9611d26565b73ffffffffffffffffffffffffffffffffffffffff161461211f576040517f08c379a000000000000000000000000000000000000000000000000000000000815260040161211690614569565b60405180910390fd5b6064811115612163576040517f08c379a000000000000000000000000000000000000000000000000000000000815260040161215a906144c9565b60405180910390fd5b806101328190555050565b600061013160009054906101000a900473ffffffffffffffffffffffffffffffffffffffff16905090565b6121a16122a4565b73ffffffffffffffffffffffffffffffffffffffff166121bf611d26565b73ffffffffffffffffffffffffffffffffffffffff1614612215576040517f08c379a000000000000000000000000000000000000000000000000000000000815260040161220c90614569565b60405180910390fd5b600073ffffffffffffffffffffffffffffffffffffffff168173ffffffffffffffffffffffffffffffffffffffff161415612285576040517f08c379a000000000000000000000000000000000000000000000000000000000815260040161227c90614389565b60405180910390fd5b61228e81612ddb565b50565b600080823b905060008111915050919050565b600033905090565b600073ffffffffffffffffffffffffffffffffffffffff168373ffffffffffffffffffffffffffffffffffffffff16141561231c576040517f08c379a000000000000000000000000000000000000000000000000000000000815260040161231390614649565b60405180910390fd5b600073ffffffffffffffffffffffffffffffffffffffff168273ffffffffffffffffffffffffffffffffffffffff16141561238c576040517f08c379a0000000000000000000000000000000000000000000000000000000008152600401612383906143a9565b60405180910390fd5b80603460008573ffffffffffffffffffffffffffffffffffffffff1673ffffffffffffffffffffffffffffffffffffffff16815260200190815260200160002060008473ffffffffffffffffffffffffffffffffffffffff1673ffffffffffffffffffffffffffffffffffffffff168152602001908152602001600020819055508173ffffffffffffffffffffffffffffffffffffffff168373ffffffffffffffffffffffffffffffffffffffff167f8c5be1e5ebec7d5bd14f71427d1e84f3dd0314c0f7b2291e5b200ac8c7c3b9258360405161246a9190614769565b60405180910390a3505050565b600073ffffffffffffffffffffffffffffffffffffffff168373ffffffffffffffffffffffffffffffffffffffff1614156124e7576040517f08c379a00000000000000000000000000000000000000000000000000000000081526004016124de906145e9565b60405180910390fd5b600073ffffffffffffffffffffffffffffffffffffffff168273ffffffffffffffffffffffffffffffffffffffff161415612557576040517f08c379a000000000000000000000000000000000000000000000000000000000815260040161254e90614309565b60405180910390fd5b612562838383612ea1565b6000603360008573ffffffffffffffffffffffffffffffffffffffff1673ffffffffffffffffffffffffffffffffffffffff168152602001908152602001600020549050818110156125e9576040517f08c379a00000000000000000000000000000000000000000000000000000000081526004016125e090614449565b60405180910390fd5b818103603360008673ffffffffffffffffffffffffffffffffffffffff1673ffffffffffffffffffffffffffffffffffffffff1681526020019081526020016000208190555081603360008573ffffffffffffffffffffffffffffffffffffffff1673ffffffffffffffffffffffffffffffffffffffff168152602001908152602001600020600082825461267e9190614860565b925050819055508273ffffffffffffffffffffffffffffffffffffffff168473ffffffffffffffffffffffffffffffffffffffff167fddf252ad1be2c89b69c2b068fc378daa952ba7f163c4a11628f55a4df523b3ef846040516126e29190614769565b60405180910390a36126f5848484612f9c565b50505050565b60006127297f360894a13ba1a3210667c828492db98dca3e2076cc3735a920a3ca505d382bbc60001b612fa1565b60000160009054906101000a900473ffffffffffffffffffffffffffffffffffffffff16905090565b61275a6122a4565b73ffffffffffffffffffffffffffffffffffffffff16612778611d26565b73ffffffffffffffffffffffffffffffffffffffff16146127ce576040517f08c379a00000000000000000000000000000000000000000000000000000000081526004016127c590614569565b60405180910390fd5b50565b60006127db6126fb565b90506127e684612fab565b6000835111806127f35750815b15612804576128028484613064565b505b60006128327f4910fdfa16fed3260ed0e7147f7cc6da11a60208b5b9406d12a635614ffd914360001b613148565b90508060000160009054906101000a900460ff1661299b5760018160000160006101000a81548160ff0219169083151502179055506128fe858360405160240161287c919061428f565b6040516020818303038152906040527f3659cfe6000000000000000000000000000000000000000000000000000000007bffffffffffffffffffffffffffffffffffffffffffffffffffffffff19166020820180517bffffffffffffffffffffffffffffffffffffffffffffffffffffffff8381831617835250505050613064565b5060008160000160006101000a81548160ff0219169083151502179055506129246126fb565b73ffffffffffffffffffffffffffffffffffffffff168273ffffffffffffffffffffffffffffffffffffffff1614612991576040517f08c379a000000000000000000000000000000000000000000000000000000000815260040161298890614369565b60405180910390fd5b61299a85613152565b5b5050505050565b60006129ad30612291565b15905090565b600060019054906101000a900460ff16612a02576040517f08c379a00000000000000000000000000000000000000000000000000000000081526004016129f9906146c9565b60405180910390fd5b612a0a6131a1565b612a1482826131f2565b5050565b600060019054906101000a900460ff16612a67576040517f08c379a0000000000000000000000000000000000000000000000000000000008152600401612a5e906146c9565b60405180910390fd5b612a6f6131a1565b612a7881613273565b50565b600060019054906101000a900460ff16612aca576040517f08c379a0000000000000000000000000000000000000000000000000000000008152600401612ac1906146c9565b60405180910390fd5b612ad26131a1565b612ada61330f565b565b600060019054906101000a900460ff16612b2b576040517f08c379a0000000000000000000000000000000000000000000000000000000008152600401612b22906146c9565b60405180910390fd5b612b33613370565b612b3b6133c1565b565b6000151561012f60008373ffffffffffffffffffffffffffffffffffffffff1673ffffffffffffffffffffffffffffffffffffffff16815260200190815260200160002060000160009054906101000a900460ff1615151415612ca957600161012f60008373ffffffffffffffffffffffffffffffffffffffff1673ffffffffffffffffffffffffffffffffffffffff16815260200190815260200160002060000160006101000a81548160ff02191690831515021790555061012e8054905061012f60008373ffffffffffffffffffffffffffffffffffffffff1673ffffffffffffffffffffffffffffffffffffffff1681526020019081526020016000206001018190555061012e819080600181540180825580915050600190039060005260206000200160009091909190916101000a81548173ffffffffffffffffffffffffffffffffffffffff021916908373ffffffffffffffffffffffffffffffffffffffff1602179055505b50565b612cb4610b02565b81612cbd610947565b612cc79190614860565b1115612d08576040517f08c379a0000000000000000000000000000000000000000000000000000000008152600401612cff90614609565b60405180910390fd5b612d128282613412565b5050565b600080600080612d2f868861357390919063ffffffff16565b915091508115612d6f57600080612d4f87846135ed90919063ffffffff16565b915091508182612d60576000612d62565b815b9550955050505050612dd3565b600080612d85878a6135ed90919063ffffffff16565b915091508115612dc757600080612da58a8461357390919063ffffffff16565b915091508182612db6576000612db8565b815b97509750505050505050612dd3565b60008095509550505050505b935093915050565b6000609860009054906101000a900473ffffffffffffffffffffffffffffffffffffffff16905081609860006101000a81548173ffffffffffffffffffffffffffffffffffffffff021916908373ffffffffffffffffffffffffffffffffffffffff1602179055508173ffffffffffffffffffffffffffffffffffffffff168173ffffffffffffffffffffffffffffffffffffffff167f8be0079c531659141344cd1fd0a4f28419497f9722a3daafe3b4186f6b6457e060405160405180910390a35050565b612eac83838361364a565b6000151561013460009054906101000a900460ff16151514612f03576040517f08c379a0000000000000000000000000000000000000000000000000000000008152600401612efa906146a9565b60405180910390fd5b612f0b611d26565b73ffffffffffffffffffffffffffffffffffffffff168373ffffffffffffffffffffffffffffffffffffffff161415612f8e5760001515612f4b8261364f565b151514612f8d576040517f08c379a0000000000000000000000000000000000000000000000000000000008152600401612f84906146e9565b60405180910390fd5b5b612f9782612b3d565b505050565b505050565b6000819050919050565b612fb481612291565b612ff3576040517f08c379a0000000000000000000000000000000000000000000000000000000008152600401612fea90614529565b60405180910390fd5b806130207f360894a13ba1a3210667c828492db98dca3e2076cc3735a920a3ca505d382bbc60001b612fa1565b60000160006101000a81548173ffffffffffffffffffffffffffffffffffffffff021916908373ffffffffffffffffffffffffffffffffffffffff16021790555050565b606061306f83612291565b6130ae576040517f08c379a00000000000000000000000000000000000000000000000000000000081526004016130a5906145c9565b60405180910390fd5b6000808473ffffffffffffffffffffffffffffffffffffffff16846040516130d69190614278565b600060405180830381855af49150503d8060008114613111576040519150601f19603f3d011682016040523d82523d6000602084013e613116565b606091505b509150915061313e828260405180606001604052806027815260200161576d602791396138ee565b9250505092915050565b6000819050919050565b61315b81612fab565b8073ffffffffffffffffffffffffffffffffffffffff167fbc7cd75a20ee27fd9adebab32041f755214dbc6bffa90cc0225b39da2e5c2d3b60405160405180910390a250565b600060019054906101000a900460ff166131f0576040517f08c379a00000000000000000000000000000000000000000000000000000000081526004016131e7906146c9565b60405180910390fd5b565b600060019054906101000a900460ff16613241576040517f08c379a0000000000000000000000000000000000000000000000000000000008152600401613238906146c9565b60405180910390fd5b8160369080519060200190613257929190613955565b50806037908051906020019061326e929190613955565b505050565b600060019054906101000a900460ff166132c2576040517f08c379a00000000000000000000000000000000000000000000000000000000081526004016132b9906146c9565b60405180910390fd5b60008111613305576040517f08c379a00000000000000000000000000000000000000000000000000000000081526004016132fc90614329565b60405180910390fd5b8060658190555050565b600060019054906101000a900460ff1661335e576040517f08c379a0000000000000000000000000000000000000000000000000000000008152600401613355906146c9565b60405180910390fd5b61336e6133696122a4565b612ddb565b565b600060019054906101000a900460ff166133bf576040517f08c379a00000000000000000000000000000000000000000000000000000000081526004016133b6906146c9565b60405180910390fd5b565b600060019054906101000a900460ff16613410576040517f08c379a0000000000000000000000000000000000000000000000000000000008152600401613407906146c9565b60405180910390fd5b565b600073ffffffffffffffffffffffffffffffffffffffff168273ffffffffffffffffffffffffffffffffffffffff161415613482576040517f08c379a000000000000000000000000000000000000000000000000000000000815260040161347990614749565b60405180910390fd5b61348e60008383612ea1565b80603560008282546134a09190614860565b9250508190555080603360008473ffffffffffffffffffffffffffffffffffffffff1673ffffffffffffffffffffffffffffffffffffffff16815260200190815260200160002060008282546134f69190614860565b925050819055508173ffffffffffffffffffffffffffffffffffffffff16600073ffffffffffffffffffffffffffffffffffffffff167fddf252ad1be2c89b69c2b068fc378daa952ba7f163c4a11628f55a4df523b3ef8360405161355b9190614769565b60405180910390a361356f60008383612f9c565b5050565b600080600084141561358c5760016000915091506135e6565b60008385029050838582816135ca577f4e487b7100000000000000000000000000000000000000000000000000000000600052601260045260246000fd5b04146135dd5760008092509250506135e6565b60018192509250505b9250929050565b60008060008314156136055760008091509150613643565b600183858161363d577f4e487b7100000000000000000000000000000000000000000000000000000000600052601260045260246000fd5b04915091505b9250929050565b505050565b600061366161365c611d26565b611c55565b8211156136a3576040517f08c379a000000000000000000000000000000000000000000000000000000000815260040161369a90614709565b60405180910390fd5b60006363b0cd00905060006136b6610aee565b600a6136c29190614909565b6311e1a3006136d19190614a27565b905060006365920080905060006136e6610aee565b600a6136f29190614909565b630ee6b2806137019190614a27565b90506000636774858090506000613716610aee565b600a6137229190614909565b630bebc2006137319190614a27565b90506000636955b90090506000613746610aee565b600a6137529190614909565b6308f0d1806137619190614a27565b90506000636b36ec8090506000613776610aee565b600a6137829190614909565b6305f5e1006137919190614a27565b90506000636d182000905060006137a6610aee565b600a6137b29190614909565b6302faf0806137c19190614a27565b905060008e6137d66137d1611d26565b611c55565b6137e09190614a81565b90508c4211613800578b81109d50505050505050505050505050506138e9565b428d10801561380f57508a4211155b1561382b578981109d50505050505050505050505050506138e9565b428b10801561383a5750884211155b15613856578781109d50505050505050505050505050506138e9565b42891080156138655750864211155b15613881578581109d50505050505050505050505050506138e9565b42871080156138905750844211155b156138ac578381109d50505050505050505050505050506138e9565b42851080156138bb5750824211155b156138d7578181109d50505050505050505050505050506138e9565b60009d50505050505050505050505050505b919050565b606083156138fe5782905061394e565b6000835111156139115782518084602001fd5b816040517f08c379a000000000000000000000000000000000000000000000000000000000815260040161394591906142e7565b60405180910390fd5b9392505050565b82805461396190614b4c565b90600052602060002090601f01602090048101928261398357600085556139ca565b82601f1061399c57805160ff19168380011785556139ca565b828001600101855582156139ca579182015b828111156139c95782518255916020019190600101906139ae565b5b5090506139d791906139db565b5090565b5b808211156139f45760008160009055506001016139dc565b5090565b6000613a0b613a06846147c4565b61479f565b905082815260208101848484011115613a2357600080fd5b613a2e848285614b0a565b509392505050565b600081359050613a4581615727565b92915050565b600081359050613a5a8161573e565b92915050565b600082601f830112613a7157600080fd5b8135613a818482602086016139f8565b91505092915050565b600081359050613a9981615755565b92915050565b600060208284031215613ab157600080fd5b6000613abf84828501613a36565b91505092915050565b60008060408385031215613adb57600080fd5b6000613ae985828601613a36565b9250506020613afa85828601613a36565b9150509250929050565b600080600060608486031215613b1957600080fd5b6000613b2786828701613a36565b9350506020613b3886828701613a36565b9250506040613b4986828701613a8a565b9150509250925092565b60008060408385031215613b6657600080fd5b6000613b7485828601613a36565b925050602083013567ffffffffffffffff811115613b9157600080fd5b613b9d85828601613a60565b9150509250929050565b60008060408385031215613bba57600080fd5b6000613bc885828601613a36565b9250506020613bd985828601613a8a565b9150509250929050565b600080600060608486031215613bf857600080fd5b6000613c0686828701613a36565b9350506020613c1786828701613a8a565b9250506040613c2886828701613a36565b9150509250925092565b600060208284031215613c4457600080fd5b6000613c5284828501613a4b565b91505092915050565b600060208284031215613c6d57600080fd5b6000613c7b84828501613a8a565b91505092915050565b6000613c908383613c9c565b60208301905092915050565b613ca581614ab5565b82525050565b613cb481614ab5565b82525050565b6000613cc582614805565b613ccf8185614833565b9350613cda836147f5565b8060005b83811015613d0b578151613cf28882613c84565b9750613cfd83614826565b925050600181019050613cde565b5085935050505092915050565b613d2181614ac7565b82525050565b6000613d3282614810565b613d3c8185614844565b9350613d4c818560208601614b19565b80840191505092915050565b6000613d638261481b565b613d6d818561484f565b9350613d7d818560208601614b19565b613d8681614c3c565b840191505092915050565b6000613d9e60238361484f565b9150613da982614c5a565b604082019050919050565b6000613dc160158361484f565b9150613dcc82614ca9565b602082019050919050565b6000613de460408361484f565b9150613def82614cd2565b604082019050919050565b6000613e07602f8361484f565b9150613e1282614d21565b604082019050919050565b6000613e2a60268361484f565b9150613e3582614d70565b604082019050919050565b6000613e4d60228361484f565b9150613e5882614dbf565b604082019050919050565b6000613e7060488361484f565b9150613e7b82614e0e565b606082019050919050565b6000613e93603e8361484f565b9150613e9e82614e83565b604082019050919050565b6000613eb6602c8361484f565b9150613ec182614ed2565b604082019050919050565b6000613ed960488361484f565b9150613ee482614f21565b606082019050919050565b6000613efc60268361484f565b9150613f0782614f96565b604082019050919050565b6000613f1f602c8361484f565b9150613f2a82614fe5565b604082019050919050565b6000613f42603c8361484f565b9150613f4d82615034565b604082019050919050565b6000613f65602f8361484f565b9150613f7082615083565b604082019050919050565b6000613f88603a8361484f565b9150613f93826150d2565b604082019050919050565b6000613fab602e8361484f565b9150613fb682615121565b604082019050919050565b6000613fce60448361484f565b9150613fd982615170565b606082019050919050565b6000613ff1602d8361484f565b9150613ffc826151e5565b604082019050919050565b600061401460288361484f565b915061401f82615234565b604082019050919050565b600061403760208361484f565b915061404282615283565b602082019050919050565b600061405a602a8361484f565b9150614065826152ac565b604082019050919050565b600061407d60308361484f565b9150614088826152fb565b604082019050919050565b60006140a060268361484f565b91506140ab8261534a565b604082019050919050565b60006140c360258361484f565b91506140ce82615399565b604082019050919050565b60006140e660198361484f565b91506140f1826153e8565b602082019050919050565b600061410960418361484f565b915061411482615411565b606082019050919050565b600061412c60248361484f565b915061413782615486565b604082019050919050565b600061414f60328361484f565b915061415a826154d5565b604082019050919050565b600061417260358361484f565b915061417d82615524565b604082019050919050565b600061419560248361484f565b91506141a082615573565b604082019050919050565b60006141b8602b8361484f565b91506141c3826155c2565b604082019050919050565b60006141db60278361484f565b91506141e682615611565b604082019050919050565b60006141fe602a8361484f565b915061420982615660565b604082019050919050565b600061422160258361484f565b915061422c826156af565b604082019050919050565b6000614244601f8361484f565b915061424f826156fe565b602082019050919050565b61426381614af3565b82525050565b61427281614afd565b82525050565b60006142848284613d27565b915081905092915050565b60006020820190506142a46000830184613cab565b92915050565b600060208201905081810360008301526142c48184613cba565b905092915050565b60006020820190506142e16000830184613d18565b92915050565b600060208201905081810360008301526143018184613d58565b905092915050565b6000602082019050818103600083015261432281613d91565b9050919050565b6000602082019050818103600083015261434281613db4565b9050919050565b6000602082019050818103600083015261436281613dd7565b9050919050565b6000602082019050818103600083015261438281613dfa565b9050919050565b600060208201905081810360008301526143a281613e1d565b9050919050565b600060208201905081810360008301526143c281613e40565b9050919050565b600060208201905081810360008301526143e281613e63565b9050919050565b6000602082019050818103600083015261440281613e86565b9050919050565b6000602082019050818103600083015261442281613ea9565b9050919050565b6000602082019050818103600083015261444281613ecc565b9050919050565b6000602082019050818103600083015261446281613eef565b9050919050565b6000602082019050818103600083015261448281613f12565b9050919050565b600060208201905081810360008301526144a281613f35565b9050919050565b600060208201905081810360008301526144c281613f58565b9050919050565b600060208201905081810360008301526144e281613f7b565b9050919050565b6000602082019050818103600083015261450281613f9e565b9050919050565b6000602082019050818103600083015261452281613fc1565b9050919050565b6000602082019050818103600083015261454281613fe4565b9050919050565b6000602082019050818103600083015261456281614007565b9050919050565b600060208201905081810360008301526145828161402a565b9050919050565b600060208201905081810360008301526145a28161404d565b9050919050565b600060208201905081810360008301526145c281614070565b9050919050565b600060208201905081810360008301526145e281614093565b9050919050565b60006020820190508181036000830152614602816140b6565b9050919050565b60006020820190508181036000830152614622816140d9565b9050919050565b60006020820190508181036000830152614642816140fc565b9050919050565b600060208201905081810360008301526146628161411f565b9050919050565b6000602082019050818103600083015261468281614142565b9050919050565b600060208201905081810360008301526146a281614165565b9050919050565b600060208201905081810360008301526146c281614188565b9050919050565b600060208201905081810360008301526146e2816141ab565b9050919050565b60006020820190508181036000830152614702816141ce565b9050919050565b60006020820190508181036000830152614722816141f1565b9050919050565b6000602082019050818103600083015261474281614214565b9050919050565b6000602082019050818103600083015261476281614237565b9050919050565b600060208201905061477e600083018461425a565b92915050565b60006020820190506147996000830184614269565b92915050565b60006147a96147ba565b90506147b58282614b7e565b919050565b6000604051905090565b600067ffffffffffffffff8211156147df576147de614c0d565b5b6147e882614c3c565b9050602081019050919050565b6000819050602082019050919050565b600081519050919050565b600081519050919050565b600081519050919050565b6000602082019050919050565b600082825260208201905092915050565b600081905092915050565b600082825260208201905092915050565b600061486b82614af3565b915061487683614af3565b9250827fffffffffffffffffffffffffffffffffffffffffffffffffffffffffffffffff038211156148ab576148aa614baf565b5b828201905092915050565b6000808291508390505b6001851115614900578086048111156148dc576148db614baf565b5b60018516156148eb5780820291505b80810290506148f985614c4d565b94506148c0565b94509492505050565b600061491482614af3565b915061491f83614afd565b925061494c7fffffffffffffffffffffffffffffffffffffffffffffffffffffffffffffffff8484614954565b905092915050565b6000826149645760019050614a20565b816149725760009050614a20565b81600181146149885760028114614992576149c1565b6001915050614a20565b60ff8411156149a4576149a3614baf565b5b8360020a9150848211156149bb576149ba614baf565b5b50614a20565b5060208310610133831016604e8410600b84101617156149f65782820a9050838111156149f1576149f0614baf565b5b614a20565b614a0384848460016148b6565b92509050818404811115614a1a57614a19614baf565b5b81810290505b9392505050565b6000614a3282614af3565b9150614a3d83614af3565b9250817fffffffffffffffffffffffffffffffffffffffffffffffffffffffffffffffff0483118215151615614a7657614a75614baf565b5b828202905092915050565b6000614a8c82614af3565b9150614a9783614af3565b925082821015614aaa57614aa9614baf565b5b828203905092915050565b6000614ac082614ad3565b9050919050565b60008115159050919050565b600073ffffffffffffffffffffffffffffffffffffffff82169050919050565b6000819050919050565b600060ff82169050919050565b82818337600083830152505050565b60005b83811015614b37578082015181840152602081019050614b1c565b83811115614b46576000848401525b50505050565b60006002820490506001821680614b6457607f821691505b60208210811415614b7857614b77614bde565b5b50919050565b614b8782614c3c565b810181811067ffffffffffffffff82111715614ba657614ba5614c0d565b5b80604052505050565b7f4e487b7100000000000000000000000000000000000000000000000000000000600052601160045260246000fd5b7f4e487b7100000000000000000000000000000000000000000000000000000000600052602260045260246000fd5b7f4e487b7100000000000000000000000000000000000000000000000000000000600052604160045260246000fd5b6000601f19601f8301169050919050565b60008160011c9050919050565b7f45524332303a207472616e7366657220746f20746865207a65726f206164647260008201527f6573730000000000000000000000000000000000000000000000000000000000602082015250565b7f45524332304361707065643a2063617020697320300000000000000000000000600082015250565b7f54414e534f3a205468652066656520616d6f756e74206d757374206265206c6560008201527f7373207468616e206f7220657175616c20746865206974656d2070726963652e602082015250565b7f45524331393637557067726164653a207570677261646520627265616b73206660008201527f7572746865722075706772616465730000000000000000000000000000000000602082015250565b7f4f776e61626c653a206e6577206f776e657220697320746865207a65726f206160008201527f6464726573730000000000000000000000000000000000000000000000000000602082015250565b7f45524332303a20617070726f766520746f20746865207a65726f20616464726560008201527f7373000000000000000000000000000000000000000000000000000000000000602082015250565b7f54414e534f3a2054686520666565207374616b696e6720616d6f756e74206d7560008201527f7374206265206c657373207468616e206f7220657175616c207468652066656560208201527f20616d6f756e742e000000000000000000000000000000000000000000000000604082015250565b7f54414e534f3a20666565202f2070726963652070657263656e74616765206d7560008201527f7374206265206c657373207468616e206f7220657175616c20313030252e0000602082015250565b7f46756e6374696f6e206d7573742062652063616c6c6564207468726f7567682060008201527f64656c656761746563616c6c0000000000000000000000000000000000000000602082015250565b7f54414e534f3a205468652066656520726563697069656e74277320616464726560008201527f7373206d757374206e6f7420626520746865206d73672e73656e64657227732060208201527f616464726573732e000000000000000000000000000000000000000000000000604082015250565b7f45524332303a207472616e7366657220616d6f756e742065786365656473206260008201527f616c616e63650000000000000000000000000000000000000000000000000000602082015250565b7f46756e6374696f6e206d7573742062652063616c6c6564207468726f7567682060008201527f6163746976652070726f78790000000000000000000000000000000000000000602082015250565b7f54414e534f3a205468652066656520726563697069656e74277320616464726560008201527f7373206d757374206e6f74206265207a65726f20616464726573732e00000000602082015250565b7f54414e534f3a20546865206d73672e73656e64657227732062616c616365206960008201527f7320696e73756666696369656e742e0000000000000000000000000000000000602082015250565b7f54414e534f3a20546865206e65772070657263656e74616765206d757374206260008201527f65206c657373207468616e206f7220657175616c20313030252e000000000000602082015250565b7f496e697469616c697a61626c653a20636f6e747261637420697320616c72656160008201527f647920696e697469616c697a6564000000000000000000000000000000000000602082015250565b7f54414e534f3a20666565207374616b696e67202f206665652070657263656e7460008201527f616765206d757374206265206c657373207468616e206f7220657175616c203160208201527f3030252e00000000000000000000000000000000000000000000000000000000604082015250565b7f455243313936373a206e657720696d706c656d656e746174696f6e206973206e60008201527f6f74206120636f6e747261637400000000000000000000000000000000000000602082015250565b7f45524332303a207472616e7366657220616d6f756e742065786365656473206160008201527f6c6c6f77616e6365000000000000000000000000000000000000000000000000602082015250565b7f4f776e61626c653a2063616c6c6572206973206e6f7420746865206f776e6572600082015250565b7f54414e534f3a204661696c656420746f2063616c63756c61746520746865206660008201527f656520616d6f756e742e00000000000000000000000000000000000000000000602082015250565b7f54414e534f3a20546865206e65772061646472657373206d757374206e6f742060008201527f6265207a65726f20616464726573732e00000000000000000000000000000000602082015250565b7f416464726573733a2064656c65676174652063616c6c20746f206e6f6e2d636f60008201527f6e74726163740000000000000000000000000000000000000000000000000000602082015250565b7f45524332303a207472616e736665722066726f6d20746865207a65726f20616460008201527f6472657373000000000000000000000000000000000000000000000000000000602082015250565b7f45524332304361707065643a2063617020657863656564656400000000000000600082015250565b7f54414e534f3a205468652073656c6c657227732061646472657373206d75737460008201527f206e6f7420626520746865206d73672e73656e6465722773206164647265737360208201527f2e00000000000000000000000000000000000000000000000000000000000000604082015250565b7f45524332303a20617070726f76652066726f6d20746865207a65726f2061646460008201527f7265737300000000000000000000000000000000000000000000000000000000602082015250565b7f54414e534f3a204661696c656420746f2063616c63756c61746520746865206660008201527f6565207374616b696e6720616d6f756e742e0000000000000000000000000000602082015250565b7f54414e534f3a205468652073656c6c657227732061646472657373206d75737460008201527f206e6f74206265207a65726f20616464726573732e0000000000000000000000602082015250565b7f54414e534f3a205472616e7366657272696e67206973206d75746578206c6f6360008201527f6b65642e00000000000000000000000000000000000000000000000000000000602082015250565b7f496e697469616c697a61626c653a20636f6e7472616374206973206e6f74206960008201527f6e697469616c697a696e67000000000000000000000000000000000000000000602082015250565b7f54414e534f3a20546865206f776e657227732062616c616365206973206c6f6360008201527f6b65642075702e00000000000000000000000000000000000000000000000000602082015250565b7f54414e534f3a20546865206f776e657227732062616c61636520697320696e7360008201527f756666696369656e742e00000000000000000000000000000000000000000000602082015250565b7f45524332303a2064656372656173656420616c6c6f77616e63652062656c6f7760008201527f207a65726f000000000000000000000000000000000000000000000000000000602082015250565b7f45524332303a206d696e7420746f20746865207a65726f206164647265737300600082015250565b61573081614ab5565b811461573b57600080fd5b50565b61574781614ac7565b811461575257600080fd5b50565b61575e81614af3565b811461576957600080fd5b5056fe416464726573733a206c6f772d6c6576656c2064656c65676174652063616c6c206661696c6564a2646970667358221220220fb01d661d528f39e0ddb62cf3d44872eaba31b63563f34630c7c129294cd164736f6c63430008040033",
  "linkReferences": {},
  "deployedLinkReferences": {}
}